:0C0000000C942A000C9400000C940000EA
:10000C000C9400000C9400000C9400000C94000064
:10001C000C9400000C9400000C9400000C94000054
:10002C000C9400000C9400000C9400000C94000044
:10003C000C9400000C9400000C9400000C94000034
:10004C000C9400000C940000F894EE27ECBBF1E04B
:10005C00F5BFE5BFF8E1F1BDE1BD8DE0A2E0BB2746
:10006C00ED938A95E9F780E098E0A0E6ED9301978F
:10007C00E9F7EFE5EDBFE8E0EEBFC0E6D2E00C94A7
:10008C004700E1E0E7BBE1E004D0E0E002D0FBCFC9
:10009C00FFCFE8BBAAEFB0E00C945400109639F0F7
:1000AC0080EA9FE00197F1F7A8951197C9F7089599
:00000001FF
