:020000000C945E
:100002008C000C9400000C94BB000C9400000C9427
:1000120000000C9400000C9400000C9400000C945E
:1000220000000C9400000C9400000C9400000C944E
:1000320000000C9400000C9400000C9400000C943E
:1000420000000C9400000C9400000C9400000C942E
:100052000000600262026402660268026A026C02C6
:100062006E02700272027402760278027A027C02D6
:100072007E02300031003200330034003500360099
:100082003700380039004100420043004400450077
:10009200460068656C6C6F20776F726C642100009B
:1000A20080C0020060027400020062027600020058
:1000B20064027800020066027A00020068027C0094
:1000C20002006A027E0002006C02800002006E02E0
:1000D20082000200700284000200720286000200A6
:1000E20074028800020076028A00020078028C0004
:1000F20002007A028E0002007C02900002007E0260
:10010200920020008D0254000D0080029400020033
:10011200AD02A2000000F894EE27ECBBF1E0F5BFBF
:10012200E5BFF8E1F1BDE1BD8DE0A2E0BB27ED93B3
:100132008A95E9F780E098E0A0E6ED930197E9F768
:10014200E4EAF0E085919591009761F0A591B5916F
:1001520005901590BF01F00105900D920197E1F70E
:10016200FB01F0CFEFE5EDBFE8E0EEBFC0E6D2E085
:100172000C9437010A921A92FA926A937A938A93AA
:100182009A93AA93BA93EA93FA93EFB7EA93EFEEAC
:10019200EBBB59D0C89902C0A0E019D1C99902C0DD
:1001A200A1E015D1CA9902C0A2E011D1CB9902C037
:1001B200A3E00DD1EFEDEBBB46D0C89902C0A4E09D
:1001C20006D1C99902C0A5E002D1CA9902C0A6E02F
:1001D200FED0CB9902C0A7E0FAD0EFEBEBBB33D055
:1001E200C89902C0A8E0F3D0C99902C0A9E0EFD033
:1001F200CA9902C0AAE0EBD0CB9902C0ABE0E7D02B
:10020200EFE7EBBB20D0C89902C0ACE0E0D0C999BF
:1002120002C0ADE0DCD0CA9902C0AEE0D8D0CB9922
:1002220002C0AFE0D4D0EFE0EBBBE991EFBFF991B0
:10023200E991B991A9919991899179916991F990ED
:10024200199009901895A1E0C4D00895BA93AA9381
:1002520062D0E881F981ADE8B2E0EE0FFF1FAE0F88
:10026200BF1F0E94FD01DF0178D053C0E0EFEABB5F
:10027200EFE0EBBBEFEFE4BBE0E0E5BBE1BBE8E0C6
:10028200E2BBE0E8EBBFE0E0E5BFA0E177D0A0E8A9
:10029200B2E063D07894FFCFFFCFAA93E881E071F8
:1002A20011F0AB9A01C0AB98E881E07211F0AC9A00
:1002B20001C0AC98E881E07411F0AD9A01C0AD982C
:1002C200E881E07811F0AE9A01C0AE9881E08A959B
:1002D200F1F7AA9A82E08A95F1F7AA9882E08A95C4
:1002E200F1F773C0AA93A881D8DFE881E295E88389
:1002F200A881D3DF81E18A95F1F767C0AA93E881EB
:10030200F0E0E355FD4FE081A981AE0FEBDF5980AC
:10031200488022960895A2E0E5DFA3E05AD0ACE03F
:10032200E1DFA1E0DFDFA3E054D0E0E04E2E5E2E5D
:100332000895AA93A881AA3011F0571440F0E0E082
:10034200EA934394A42DDADFA881AA30F1F1539401
:10035200A89AA881C7DFA89838C0BA93AA931A931B
:10036200A981BA81ED91A983BA831E2FE03019F0D9
:10037200A12FDFDFF5CF188123960895AA93A39AC0
:10038200A49AA59AA69AA29AA09AA19AAA98A8987B
:10039200A9987880E881E058E093AF02E881E054C0
:1003A200E093B002A4E115D017D016D015D0A0E288
:1003B20074DF81E28A95F1F7A8E294DFA4E092DF8C
:1003C200A5E890DFA6E08EDFA6DF21960895B0E0D3
:1003D2003DCFB0E00C94F301A0E35FDF81E28A95A8
:1003E200F1F70895109639F08AEF90E00197F1F74E
:1003F200A8951197C9F70895ED91FC911197089569
:00000001FF
