:0C0000000C942A000C9400000C940000EA
:10000C000C9400000C9400000C9400000C94000064
:10001C000C9400000C9400000C9400000C94000054
:10002C000C9400000C9400000C9400000C94000044
:10003C000C9400000C9400000C9400000C94000034
:10004C000C9400000C940000F894EE27ECBBF1E04B
:10005C00F5BFE5BFF8E1F1BDE1BD8DE0A2E0BB2746
:10006C00ED938A95E9F780E098E0A0E6ED9301978F
:10007C00E9F7EFE5EDBFE8E0EEBFC0E6D2E00C94A7
:10008C004700E0E6E1BBE0E0E2BBE0ECEFBDEFB542
:10009C00E160EFBDE8E0EEBDEEB5E260EEBDE0E0A4
:1000AC00EDBDECBDEBBDEABD7894EAB5EF5FEABD02
:1000BC00A2E3B0E00E946400F8CFFFCF109639F0B5
:1000CC008AEF90E00197F1F7A8951197C9F7089579
:00000001FF
