:060000000C9436000C9484
:1000060000000C9465000C9400000C9400000C9405
:1000160000000C9400000C9400000C9400000C945A
:1000260000000C9400000C9400000C9400000C944A
:1000360000000C9400000C9400000C9400000C943A
:1000460000000C9400000C9400000C940000C0CF3B
:10005600A4B0999282F8809088839EA1868E100023
:10006600600254000000F894EE27ECBBF1E0F5BF07
:10007600E5BFF8E1F1BDE1BD8DE0A2E0BB27ED9360
:100086008A95E9F780E098E0A0E6ED930197E9F715
:10009600E4E6F0E085919591009761F0A591B59120
:1000A60005901590BF01F00105900D920197E1F7BB
:1000B600FB01F0CFEFE5EDBFE8E0EEBFC0E6D2E032
:1000C6000C94DD000A921A92FA926A937A938A93B2
:1000D6009A93AA93BA93EA93FA93EFB7EA93EFEE59
:1000E600EBBB59D0C89902C0A0E076D0C99902C02E
:1000F600A1E072D0CA9902C0A2E06ED0CB9902C02C
:10010600A3E06AD0EFEDEBBB46D0C89902C0A4E0ED
:1001160063D0C99902C0A5E05FD0CA9902C0A6E023
:100126005BD0CB9902C0A7E057D0EFEBEBBB33D047
:10013600C89902C0A8E050D0C99902C0A9E04CD025
:10014600CA9902C0AAE048D0CB9902C0ABE044D01D
:10015600EFE7EBBB20D0C89902C0ACE03DD0C9990F
:1001660002C0ADE039D0CA9902C0AEE035D0CB9915
:1001760002C0AFE031D0EFE0EBBBE991EFBFF99100
:10018600E991B991A9919991899179916991F9909A
:10019600199009901895A1E0B0E00E94F100089529
:1001A600BA93AA93E881F981E05AFD4FE081E8BB52
:1001B60022960895E0EFEABBEFE0EBBBEFEFE7BB7B
:1001C600E8BBE0E0E1BBE8E0E2BBE0E8EBBFE0E093
:1001D600E5BF7894FFCFFFCFB0E0E2CF109639F0BD
:1001E6008AEF90E00197F1F7A8951197C9F708955E
:00000001FF
