:100000000C942A000C9400000C9400000C94000046
:100010000C9400000C9400000C9400000C94000060
:100020000C9400000C9400000C9400000C94000050
:100030000C9400000C9400000C9400000C94000040
:100040000C9400000C9400000C9400000C94000030
:100050000C940000F894EE27ECBBF1E0F5BFE5BF8F
:10006000F8E1F1BDE1BD8DE0A2E0BB27ED938A95FB
:10007000E9F780E098E0A0E6ED930197E9F7EFE576
:10008000EDBFE8E0EEBFC0E6D2E00C944700E1E04F
:10009000E7BBE0E0E8BBE8B1E360E8B97894229719
:1000A000E8B1E072F0E0E883F983A881B981909724
:1000B00011F4E1E001C0E0E0E8BB2296F0CFFFCF11
:00000001FF
