:060000000C942A000C9490
:1000060047000C9400000C9400000C9400000C9423
:1000160000000C9400000C9400000C9400000C945A
:1000260000000C9400000C9400000C9400000C944A
:1000360000000C9400000C9400000C9400000C943A
:1000460000000C9400000C9400000C940000F8943E
:10005600EE27ECBBF1E0F5BFE5BFF8E1F1BDE1BD90
:100066008DE0A2E0BB27ED938A95E9F780E098E062
:10007600A0E6ED930197E9F7EFE5EDBFE8E0EEBF07
:10008600C0E6D2E00C944D00C09B02C0C09801C0EF
:10009600C09A1895E1E0E7BBE8BBE0E0E1BBE4E02D
:1000A600E2BBE0E4EBBFE0E0E5BF7894FFCFFFCF33
:00000001FF
