:020000000C945E
:1000020038000C9400000C9400000C9400000C9436
:1000120000000C9400000C9400000C9400000C945E
:1000220000000C9400000C9400000C9467000C94E7
:1000320000000C9400000C9400000C9400000C943E
:1000420000000C9400000C9400000C9400000C942E
:10005200000080C001002D4E414E00494E46000076
:100062000200600254000100640256000000F8948D
:10007200EE27ECBBF1E0F5BFE5BFF8E1F1BDE1BD74
:100082008DE0A2E0BB27ED938A95E9F780E098E046
:10009200A0E6ED930197E9F7E2E6F0E0859195910C
:1000A200009761F0A591B59105901590BF01F001FF
:1000B20005900D920197E1F7FB01F0CFEFE5EDBF5F
:1000C200E8E0EEBFC0E6D2E00C949E000A921A92DB
:1000D200FA926A937A938A939A93AA93BA93EA9337
:1000E200FA93EFB7EA93F20131962F01E4E0F0E0E0
:1000F2004E165F063CF014D044245524E0E0E2BFE3
:10010200EDBDECBDE991EFBFF991E991B991A991EA
:100112009991899179916991F9901990099018951D
:10012200239761D0ECB5F0E0FA93EA93DE011296E0
:100132000E945401DE0178D086C0E0E0E2BFECBF4D
:10014200E3B7E3BFE3B7E560E3BFE9B7E160E9BF67
:10015200E0E0EDBDECBDEEB5E760EEBD4424552414
:10016200A0E173D07894FFCFFFCFAA93E881E0712A
:1001720011F0AB9A01C0AB98E881E07211F0AC9A31
:1001820001C0AC98E881E07411F0AD9A01C0AD985D
:10019200E881E07811F0AE9A01C0AE9881E08A95CC
:1001A200F1F7AA9A82E08A95F1F7AA9882E08A95F5
:1001B200F1F777C0AA93A881D8DFE881E295E883B6
:1001C200A881D3DF81E18A95F1F76BC0AA93E88118
:1001D200F0E0E05AFD4FE081A981AE0FEBDF7980BC
:1001E200688022960895A2E00E948201ACE0E2DFDC
:1001F200A1E00E948201E0E06E2E7E2E0895AA9375
:10020200A881AA3011F0791448F0E0E0EA936394EF
:10021200A62DDCDFA881AA3009F443C07394A89A02
:10022200A881C8DFA8983DC0BA93AA931A93A9815E
:10023200BA81ED91A983BA831E2FE03019F0A12F64
:10024200DEDFF5CF188123960895AA93A39AA49A84
:10025200A59AA69AA29AA09AA19AAA98A898A998A9
:100262009880E881E058E0936202E881E054E093EC
:100272006302A4E1B0E00E948F010E9488010E9403
:1002820088010E948801A0E270DF81E28A95F1F77D
:10029200A8E290DFA4E08EDFA5E88CDFA6E08ADF8B
:1002A200A2DF21960895BA93AA93A991B991E991EF
:1002B200F99130962AF4E095F09531966DE26D93BE
:1002C200E89480E197E20DD088EE93E00AD084E6CC
:1002D200992707D08AE005D06E2F10D066276C933D
:1002E20008956627E817F90720F06395E81BF90BD4
:1002F200C9F7662311F416F008956894605D6D9352
:1003020008950E94DB00A3E0B0E00C948F01A0E30B
:100312000E94B60081E28A95F1F70895109639F0AD
:100322008AEF90E00197F1F7A8951197C9F7089520
:00000001FF
