:060000000C942A000C9490
:1000060000000C9400000C9400000C9400000C946A
:1000160000000C9400000C9400000C9400000C945A
:1000260000000C9400000C9447000C9400000C9403
:1000360000000C9400000C9400000C9400000C943A
:1000460000000C9400000C9400000C940000F8943E
:10005600EE27ECBBF1E0F5BFE5BFF8E1F1BDE1BD90
:100066008DE0A2E0BB27ED938A95E9F780E098E062
:10007600A0E6ED930197E9F7EFE5EDBFE8E0EEBF07
:10008600C0E6D2E00C946100EA93FA93EFB7EA93E4
:10009600F20131962F01E4E0F0E0E415F50549F4AC
:1000A600C09B02C0C09801C0C09AE0E0E2BF4424F1
:1000B6005524E991EFBFF991E9911895E1E0E7BB85
:1000C600E8BBE0E0E2BFECBFE3BFE3B7E560E3BF58
:1000D600E9B7E160E9BF442455247894FFCFFFCF08
:00000001FF
